:100000000C9405010C942D010C942D010C942D01E0
:100010000C942D010C942D010C942D010C942D01A8
:100020000C942D010C942D010C94CF030C943605E7
:100030000C942D010C942D010C942D010C942D0188
:100040000C942D010C942D010C942D010C942D0178
:100050000C942D010C942D010C942D010C944E0A3E
:100060000C942D010C942D010C942D010C942D0158
:100070000C942D010C942D010C942D010C942D0148
:100080000C942D010C942D010C942D010C942D0138
:100090000C942D010C942D010C942D010C942D0128
:1000A0000C942D010C942D010C942D018C078F07BD
:1000B0007E0782078807B007B007B0079307970746
:1000C0009B07A107A507B007AB07080B00020202B8
:1000D00001000904000001020200000524001001D3
:1000E0000524010101042402060524060001070578
:1000F000810310004009040100020A000000070506
:1001000002024000000705830240000004030904C6
:1001100012010002EF02014041233680000101027A
:10012000030141726475696E6F204C4C430041724B
:100130006475696E6F204C656F6E6172646F000745
:100140000605040100080A0B0C0D0900000000243C
:100150000027002A002D00300000000000250028A4
:10016000002B002E00310000000000230026002993
:10017000002C002F000404040404030405020202FE
:100180000204030202020206060606060604040230
:100190000202040404080201104080401020408044
:1001A00040800802040180402010020110801020CD
:1001B0004040200000000200090F0000030401007D
:1001C0000C00000000000000000000000000000023
:1001D000000005010902A1010901A100850105092D
:1001E0001901290315002501950375018102950167
:1001F0007505810305010930093109381581257F0D
:10020000750895038106C0C0E70C11241FBECFEF0F
:10021000DAE0DEBFCDBF22E0AAE9B1E001C01D9265
:10022000A434B207E1F711E0A0E0B1E0E6ECFFE1B1
:1002300002C005900D92AA39B107D9F711E0C5E0C7
:10024000D1E004C02197FE010E94CB0DC430D1073C
:10025000C9F70E94980A0C94E10F0C940000409199
:10026000A8015091A9012091A6013091A701421740
:100270005307B4F49091E8009570E1F39091E80091
:1002800092FD19C08093F1008091A8019091A9017D
:1002900001968F739927892B19F48EEF8093E800CC
:1002A0008091A8019091A90101969093A901809352
:1002B000A80181E0089580E00895DF92EF92FF9217
:1002C0000F931F93CF93DF93D82EF92EE42E062F92
:1002D00010E0C8010196880F0E942F0183E00E9460
:1002E0002F01CD2DDF2D0C0F1D1FC017D10789F059
:1002F000E7FE03C0FE01849101C088810E942F01A6
:10030000F82E80E00E942F018F2121968111EDCFE0
:1003100001C081E0DF91CF911F910F91FF90EF908D
:10032000DF900895DF92EF92FF920F931F93CF9388
:10033000DF93D82E8A017B01E40EF51EEB01CE156A
:10034000DF0571F0D7FE03C0FE01849101C08881F2
:100350000E942F0121968111F2CF8FEF9FEF01C0F4
:10036000C801DF91CF911F910F91FF90EF90DF9027
:1003700008952FB7F89487708093E9009091E80072
:10038000892F807295FF04C09091F20080E4891B50
:100390002FBF0895615030F02091F100FC012083BF
:1003A0000196F8CF289884E68093BD010895CF92F6
:1003B000DF92EF92FF920F931F93CF93DF936C0125
:1003C0007A018B01C0E0D0E0CE15DF0581F0D801C5
:1003D0006D918D01D601ED91FC910190F081E02DA0
:1003E000C6010995892B11F02196EECF7E01C70138
:1003F000DF91CF911F910F91FF90EF90DF90CF9001
:100400000895CF93DF931F92CDB7DEB76983DC01E8
:10041000ED91FC910280F381E02D41E050E0BE01BE
:100420006F5F7F4F09950F90DF91CF91089583E023
:100430008093E9008091F200882319F08AE3809389
:10044000E800089583E00E94B90190E00895FC015E
:100450008485958597FD0BC09FB7F89482E08093C3
:10046000E9008091F2009FBF90E0019608959FB748
:10047000F89482E08093E9008091F2009FBF90E0C1
:100480000895089580E090E00895DC01FB01129644
:100490008C91129790E02481358182179307D1F4D3
:1004A00091818081813A31F481E0913091F09330F3
:1004B00089F411C0813271F49B3021F482811F963E
:1004C0008C9305C09A3031F4828150968C9381E0F0
:1004D0000895089580E00895DC01FB0188E480839D
:1004E00089E4818384E482831D969C911D979F708B
:1004F0009F5B93831D968D919C911E9724E096950A
:1005000087952A95E1F78F708F5B848385E0089546
:10051000EF92FF920F931F93CF93DF93FB01208104
:10052000213851F52381223239F5DC0112962C91C4
:1005300030E04481558142175307F1F4EC010B85FB
:100540001C85E12CF12C0115110591F0F801448175
:1005500055816281738180E80E9492018F3FFFEF95
:100560009F0769F0E80EF91ED8010D911C91EBCFA1
:1005700081E08F87C70105C080E090E002C08FEF67
:100580009FEFDF91CF911F910F91FF90EF90089512
:10059000CF93DF93CDB7DEB769970FB6F894DEBF80
:1005A0000FBECDBFFC01DB018C918F5F8C93BE0130
:1005B0006F5F7F4F89E1DB011D928A95E9F729E0A2
:1005C000298384E08A8391E09D8383E08E832A8758
:1005D00021E22B879C879D879F8722E2288B27E03B
:1005E0002B8B25E02C8B8E8B20E430E0388F2F8BEB
:1005F000998F82818B8395858685998B8A8B838160
:1006000080688D8B49E150E080E00E9492016996FC
:100610000FB6F894DEBF0FBECDBFDF91CF91089526
:10062000FC0182818F5BFB01808381E008950E9441
:10063000CC0F0F931F93CF93DF931F92CDB7DEB7ED
:100640008C01FC018485958597FF0EC0CE01019633
:100650000E945009019719F4898190E002C08FEF40
:100660009FEFF80195878487F801848595850F9021
:10067000DF91CF911F910F910895CF93DF931F9238
:10068000CDB7DEB7FC018485958597FD05C02FEFBA
:100690003FEF358724870BC0CE0101960E94500999
:1006A000019719F4898190E002C08FEF9FEF0F90BE
:1006B000DF91CF9108950F931F93CF93DF93EC01B8
:1006C00088819981009729F02A813B812617370775
:1006D00088F48B016F5F7F4F0E94060F009761F0D7
:1006E000998388831B830A832C813D81232B11F4FA
:1006F000FC01108281E001C080E0DF91CF911F9169
:100700000F910895CF93DF93EC0188819981009731
:1007100011F00E947D0E198218821D821C821B829C
:100720001A82DF91CF910895EF92FF920F931F935A
:10073000CF93DF93EC01198218821B821A821D82EB
:100740001C826115710521F18B01FB0101900020D4
:10075000E9F731977F01E61AF70AB7010E945B03B8
:10076000811109C0CE01DF91CF911F910F91FF90B0
:10077000EF900C948203FD82EC82B801888199810C
:10078000DF91CF911F910F91FF90EF900C94DA0FB2
:10079000DF91CF911F910F91FF90EF9008951F92DD
:1007A0000F920FB60F9211248F939F938091E100C7
:1007B0009091E100937F9093E10083FF0FC010922E
:1007C000E90091E09093EB001092EC0092E390939B
:1007D000ED001092BE0198E09093F00082FF20C0DF
:1007E00093E09093E9009091F200992319F09AE335
:1007F0009093E8009091AB01992339F09091AB016F
:1008000091509093AB01992389F19091BD01992367
:1008100039F09091BD0191509093BD01992341F120
:1008200084FF10C08091E2008E7E81608093E200A0
:100830008091E1008F7E8093E1008091AC018E7EFB
:10084000806111C080FF16C08091E2008E7E8061C1
:100850008093E2008091E1008E7E8093E1008091A0
:10086000AC018E7E81608093AC0104C05D9ACDCFD7
:10087000289AD6CF9F918F910F900FBE0F901F9007
:1008800018957F928F929F92AF92BF92CF92DF92F4
:10089000EF92FF920F931F93CF93DF93C82E8B019C
:1008A0007A018091BE01811103C08FEF9FEF74C068
:1008B0008091AC0180FF05C08091E0008260809350
:1008C000E000CE2DDF2DD12C8AEFB82E8C2D877035
:1008D000982E8C2D8072882E8C2D8074782E9AE321
:1008E000A92E209719F4DD2009F451C08C2D0E9407
:1008F000B90181110AC0BA94BB20B9F261E070E07D
:1009000080E090E00E94140AECCF282F30E0C2175C
:10091000D3070CF48C2F9FB7F8949092E9002091A4
:10092000E80025FF32C0282F30E0C21BD30B8820FF
:1009300029F08150A0F01092F100FBCFF801C7FE22
:100940000AC0815050F044914093F1003196F9CFA4
:1009500041914093F1008150D8F7020F131FDD2021
:1009600019F0A092E8000AC08091E80085FD08C057
:10097000A092E800DD24D394209739F0D12C05C053
:10098000209719F47110A092E8009FBFAACF5D983C
:1009900084E68093AB01C701DF91CF911F910F9146
:1009A000FF90EF90DF90CF90BF90AF909F908F908F
:1009B0007F900895CF93DF93EC0180910B01882302
:1009C00031F083E00E9441041816190634F081E0EA
:1009D00090E09B838A8380E090E0DF91CF9108953F
:1009E00080919E0181110DC082E080939A0184E084
:1009F00080939B0110929D0110929C0181E0809355
:100A00009E018AE991E008950F931F93CF93DF939E
:100A10001F92CDB7DEB782E0898342E450E06AECF2
:100A200070E080E80E9492010E94F004DC011296BE
:100A30000D911C9113970115110589F0D801ED91C5
:100A4000FC910280F381E02DBE016F5F7F4FC801F2
:100A5000099597FD04C0F80100851185ECCF8981C7
:100A60000F90DF91CF911F910F9108951F920F92D8
:100A70000FB60F921124CF92DF92EF92FF920F9355
:100A80001F932F933F934F935F936F937F938F9316
:100A90009F93AF93BF93EF93FF93CF93DF93CDB724
:100AA000DEB76C97DEBFCDBF1092E9008091E80001
:100AB00083FFFBC168E0CE0145960E94CA0182EF28
:100AC0008093E8008D8987FF05C09091E80090FF32
:100AD000FCCF03C09EEF9093E800982F907609F02A
:100AE000C6C09E894F89588D2F89F88C91110CC0F2
:100AF000803829F48091AD018093F10002C01092FA
:100B0000F1001092F10045C1913051F4811141C1C1
:100B10004130510509F03DC18091AD018D7F0BC081
:100B2000933061F4811135C14130510509F031C173
:100B30008091AD0182608093AD012BC1953049F465
:100B40008091E80080FFFCCF822F80688093E300D3
:100B500020C1963009F05EC00B8D1C8D22E01092F2
:100B6000E9001092A9011092A801F21232C010926D
:100B7000A7011092A6010E94040599E0BE016F5FD3
:100B80007F4FDB01E92F1D92EA95E9F79983FA82FD
:100B900091E09E8390EA98879AEF99872091A80127
:100BA0003091A901275F3F4F3C832B838D831092A7
:100BB000E9001092A9011092A8011093A7010093D7
:100BC000A60149E050E080E00E9492010E940405E5
:100BD000E0C01093A7010093A6010E94F004DC017D
:100BE00012960D911C9113970115110509F4BBC0C4
:100BF000D801ED91FC910480F581E02DBE016B5E82
:100C00007F4FC8010995009709F0C7C0F80100851A
:100C10001185EACF973009F445C1983021F481E07D
:100C20008093F100B6C0993009F0B3C0837009F029
:100C300039C1EDE0F1E081E031E096E3208121115E
:100C400009C08EE78093EA001092EA008F898093B2
:100C5000BE019FC08093E9003093EB002191209367
:100C6000EC009093ED008F5F873041F7EACF8B8DDA
:100C70009C8D1092E9001092A9011092A801909306
:100C8000A7018093A601898D811153C08E899D890A
:100C9000913A49F4813209F005C147E050E064E03F
:100CA00071E080E0BBC0913209F0FCC0833269F48E
:100CB0008F89988DA0E0B0E08093000190930101AE
:100CC000A0930201B093030164C0803269F4809163
:100CD000E80082FFFCCF67E084E091E00E94CA0157
:100CE0008BEF8093E80055C0823209F052C08F89A3
:100CF00080930B01EEEFFFE7859194918B3F9C4D24
:100D000019F0E0E0F8E002C0EEEFFAE080910401B3
:100D100090910501A0910601B0910701803B94409C
:100D2000A105B10509F09EC080910B0180FF79C03B
:100D300099C00E94F004FC01028113810115110584
:100D400009F4B0C0D801ED91FC910190F081E02D43
:100D5000BE016B5E7F4FC801099581111AC0F80171
:100D600000851185EBCFF1E0FF1609F44EC0F3E0EA
:100D7000FF1298C08F89882309F44AC0823089F411
:100D800040E860E18EE291E00E945D01882309F471
:100D900089C08EEF8093E80088C018161906CCF33E
:100DA00081C0813029F440E86BE082E291E0ECCF31
:100DB000833009F077C00E94F004DC011296ED90B8
:100DC000FC9013978E010F5F1F4F6801E114F1042F
:100DD00079F0D701ED91FC910680F781E02DB80103
:100DE000C7010995080F111DF701E084F184EECFCA
:100DF000D8011C92F60101900020E9F73197BF015C
:100E00006C197D0940E0C601BFCF60E171E002C00E
:100E10006CE071E0FB01449150E080E80E94920197
:100E2000B8CFEE3F2AE0F20751F0808191818737F9
:100E3000A7E79A0721F09093FF0A8093FE0A87E7BD
:100E400097E791838083809160008093AA019BE063
:100E500088E10FB6F894A895809360000FBE909338
:100E6000600097CF808191818737974709F091CFB4
:100E7000A895809160008861809360008091AA01AC
:100E800080936000EE3FBAE0FB0739F08091FE0AE4
:100E90009091FF0A918380837CCF1092FF0A109279
:100EA000FE0A77CF81E28093EB006C960FB6F89440
:100EB000DEBF0FBECDBFDF91CF91FF91EF91BF910C
:100EC000AF919F918F917F916F915F914F913F91E2
:100ED0002F911F910F91FF90EF90DF90CF900F9087
:100EE0000FBE0F901F90189590E0FC013197EF30E6
:100EF000F105B0F5EA5AFF4F0C94CB0D80918000BC
:100F00008F7703C0809180008F7D8093800008954B
:100F100080918000877FF9CF84B58F7702C084B538
:100F20008F7D84BD0895809190008F7707C0809158
:100F300090008F7D03C080919000877F8093900008
:100F400008958091C0008F7703C08091C0008F7D8D
:100F50008093C00008958091C200877F8093C20073
:100F600008953FB7F8948091150290911602A091D0
:100F70001702B091180226B5A89B05C02F3F19F0A3
:100F80000196A11DB11D3FBFBA2FA92F982F882709
:100F9000820F911DA11DB11DBC01CD0142E0660F64
:100FA000771F881F991F4A95D1F7089581E0809394
:100FB0001D0280931E0223E232E030932002209330
:100FC0001F0210922202109221022DE131E0309393
:100FD0001A022093190210922502109224021092F4
:100FE000270210922602809328028093290281EC26
:100FF000809323020E94F004FC01218180911D0254
:1010000090E0820F911D0897C4F5A281B3811097DB
:1010100029F489E192E0938382830EC018968D9122
:101020009C911997009711F0DC01F8CF89E192E0CB
:1010300019969C938E931897808180931B028181CF
:1010400080931C02908180911E02890F808380E032
:1010500090911D02891788F4A0911F02B09120027F
:10106000A80FB11D9C91A181B0E0A45FBE4F9C93DD
:1010700091819F5F91838F5FEBCF0895CF93DF9333
:10108000009779F0FC0101900020E9F73197AF015A
:10109000481B590BBC018FEB91E00E94DA04EC0174
:1010A00002C0C0E0D0E042E050E066E971E08FEBC2
:1010B00091E00E94DA048C0F9D1FDF91CF9108957B
:1010C000CF93DF9300D000D01F92CDB7DEB79091C1
:1010D0000F0299838A836B831C8280912A0281117B
:1010E00005C00E94D60781E080932A0281E08D83AB
:1010F00041E050E0BE016B5F7F4F80911C020E9477
:10110000410497FD0AC080911C0244E050E0BE01FA
:101110006F5F7F4F80640E9441040F900F900F908B
:101120000F900F90DF91CF91089590910F02892B2E
:10113000981731F080930F0260E080E00C94600813
:101140000895FC01808191810C947D0EFC01448105
:101150005581608171818FEB91E00C94DA04EF92FC
:10116000FF920F931F93CF93DF93EC01FB01048158
:101170001581E080F180E114F104C9F00115110539
:10118000C9F08C819D81080F191FB801CE010E9402
:101190005B03882361F0288139818C819D81B701AF
:1011A000820F931F0E94DA0F1D830C8303C0CE01B0
:1011B0000E948203CE01DF91CF911F910F91FF908A
:1011C000EF900895CF92DF92EF92FF920F931F93CB
:1011D000CF93DF93CDB7DEB762970FB6F894DEBF3B
:1011E0000FBECDBF8C01CB01F8011182108213829A
:1011F0001282158214824AE09E012F5F3F4F6901DF
:10120000B9010E944B0DF60101900020E9F73197DA
:101210007F01EC18FD08B701C8010E945B03811132
:1012200004C0C8010E94820308C0F801F582E4826C
:10123000B601808191810E94DA0F62960FB6F89410
:10124000DEBF0FBECDBFDF91CF911F910F91FF90F9
:10125000EF90DF90CF900895CF93DF93ECEBF1E028
:101260008491EDE9F1E0D491EEE7F1E0C491CC2373
:1012700091F081110E947407EC2FF0E0EE0FFF1F38
:10128000E959FE4FA591B491EC91ED2381E090E0F6
:1012900021F480E002C080E090E0DF91CF910895DA
:1012A0002091BE01211103C08FEF9FEF08955FB71A
:1012B000F89422E02093E9002091F20030E0121629
:1012C000130614F421E030E0422FFC0184E6415083
:1012D00038F028988093BD019091F1009193F7CF59
:1012E0002115310521F08091F200882319F05FBFAC
:1012F000C90108958BE68093E800F9CF1F93CF933F
:10130000DF93282F30E0F901ED54FE4F8491F9016D
:10131000EC56FE4FD491F901EB58FE4FC491CC230B
:10132000C1F0162F81110E947407EC2FF0E0EE0F30
:10133000FF1FE75AFE4FA591B4919FB7F894111182
:1013400004C08C91D095D82302C0EC91DE2BDC93A5
:101350009FBFDF91CF911F910895CF93DF9390E0CE
:10136000FC01EC56FE4F2491FC01EB58FE4F84919A
:10137000882361F190E0880F991FFC01E55BFE4F27
:10138000C591D491FC01E75AFE4FA591B49161112A
:1013900009C09FB7F8948881209582238883EC91B7
:1013A0002E230BC0623061F49FB7F8948881322FEE
:1013B000309583238883EC912E2B2C939FBF06C0FE
:1013C0008FB7F894E8812E2B28838FBFDF91CF91C0
:1013D0000895823108F08251E82FF0E0E15CFE4F81
:1013E000E49180917B00E3FB222720F930E095E037
:1013F000220F331F9A95E1F78F7D282B20937B00D6
:10140000E770E064E0937C0080917A0080648093D0
:101410007A0080917A0086FDFCCF8091780020913F
:10142000790090E0922B08958F929F92AF92BF9295
:10143000CF92DF92EF92FF926B017C010E94B10785
:101440004B015C01C114D104E104F104F1F00E94EC
:10145000B107DC01CB0188199909AA09BB09883EAB
:101460009340A105B10570F321E0C21AD108E1084B
:10147000F10888EE880E83E0981EA11CB11CC114EF
:10148000D104E104F10419F7DDCFFF90EF90DF9074
:10149000CF90BF90AF909F908F9008951F920F9222
:1014A0000FB60F9211242F933F938F939F93AF9377
:1014B000BF938091110290911202A0911302B091FA
:1014C00014023091100223E0230F2D3720F40196EF
:1014D000A11DB11D05C026E8230F0296A11DB11D57
:1014E000209310028093110290931202A093130292
:1014F000B09314028091150290911602A0911702E8
:10150000B09118020196A11DB11D80931502909310
:101510001602A0931702B0931802BF91AF919F914A
:101520008F913F912F910F900FBE0F901F901895A4
:10153000CF93DF93CDB7DEB762970FB6F894DEBFD7
:101540000FBECDBF789484B5826084BD84B58160C0
:1015500084BD85B5826085BD85B5816085BD80917E
:101560006E00816080936E001092810080918100F6
:1015700082608093810080918100816080938100EE
:1015800080918000816080938000809191008260D2
:10159000809391008091910081608093910080916F
:1015A00090008160809390008091C100846080935E
:1015B000C1008091C10082608093C1008091C10010
:1015C00081608093C1008091C30081608093C300DB
:1015D0008091C00082608093C0008091C2008160D1
:1015E0008093C20080917A00846080937A00809119
:1015F0007A00826080937A0080917A008160809383
:101600007A0080917A00806880937A001092BE01FF
:101610001092AD011092AC018091D700816080934F
:10162000D70080EA8093D80089B5806189BD89B5EB
:10163000826089BD09B400FEFDCF61E070E080E00A
:1016400090E00E94140A8091D8008F7C8061809382
:10165000D8008091E000807F8093E0008091E100DD
:101660008E7E8093E1008DE08093E200559A209A6F
:101670008FEF9FEF9093CC018093CB0160E084E1EA
:101680000E94AD0960E085E10E94AD0960E089E05B
:101690000E94AD0961E081E10E94AD0961E089E04D
:1016A0000E947E0968EE73E080E090E00E94140AD8
:1016B00085E10E94E9099093BC018093BB0184E11C
:1016C0000E94E9099093B8018093B70196E9692EC9
:1016D000712C2AE6C22EDD24DA94AA24A394B12C1C
:1016E00044EF842E992493943324339480E0482E3D
:1016F00080E0582E85E10E94E9092091BB013091DC
:10170000BC017C01E21AF30AF092BA01E092B9013D
:1017100084E10E94E9092091B7013091B8018C0160
:10172000021B130B1093B6010093B501E114F104F1
:1017300039F0C701B3010E94B70D80E00E94600834
:101740000115110541F0C801B6010E94B70D862FA1
:1017500060E00E9460088091B401882349F0809184
:10176000B2019091B30101969093B3018093B201BD
:101770008091B0019091B101843F21E0920734F44F
:1017800001969093B1018093B00108C01092AF010F
:101790001092AE011092B1011092B0010E942C097A
:1017A000892B21F48091B401882349F00E942C09EF
:1017B000892B49F18091B4018111E2C024C030929B
:1017C000B4018091AE019091AF01892B09F0CEC098
:1017D0008091B2019091B3018E3E92400CF0C6C050
:1017E00061E081E10E947E09B092AF01A092AE015A
:1017F00081E00E94950887E391E00E943E081092E4
:10180000B3011092B2016091B9017091BA01CE0199
:1018100001960E94E2086DE571E0CE0107960E94F4
:101820009403BE016F5F7F4FCE0107960E94AF0801
:101830000E94A608CE0107960E94A108CE0101963B
:101840000E94A1086091B5017091B601CE01019688
:101850000E94E20868E671E0CE0107960E949403B8
:10186000BE016F5F7F4FCE0107960E94AF080E94B6
:10187000A608CE0107960E94A108CE0101960E94FB
:10188000A1086091B40170E0CE0101960E94E208C7
:101890006091AE017091AF01CE0107960E94E208FF
:1018A00068E771E0CE010D960E949403BE01695F66
:1018B0007F4FCE010D960E94AF088C01FC01E480A1
:1018C000F580F4E0EF0EF11CB7010E945B03882362
:1018D00009F479C0F801208131818481958163E820
:1018E00071E0820F931F0E94DA0FF801F582E48203
:1018F000BE016F5F7F4FC8010E94AF080E94A6081B
:10190000CE010D960E94A108CE0107960E94A10863
:10191000CE0101960E94A1086091B2017091B301BD
:10192000CE0101960E94E20868E871E0CE010796B8
:101930000E949403BE016F5F7F4FCE0107960E9405
:10194000AF080E94A608CE0107960E94A108CE010A
:1019500001960E94A10888E991E00E943E08411486
:10196000510409F4C7CE0E940000BECE9092B1018E
:101970008092B00182E00E94950886E491E03DCF1C
:101980001092B40180910F02982F9E7F80FF06C0B5
:1019900090930F0260E080E00E94600880910F0247
:1019A000982F9D7F81FF06C090930F0260E080E03A
:1019B0000E94600884E591E00E943E0860E081E1B9
:1019C0000E947E0920CFC8010E94820391CF10920D
:1019D000C2011092C10188EE93E0A0E0B0E08093D4
:1019E000C3019093C401A093C501B093C60189E2DD
:1019F00091E09093C0018093BF018FEF9FEF909390
:101A0000CC018093CB0110920F028091380281119A
:101A100013C0109233021092320282ED91E0909343
:101A200035028093340286E390E0909337028093EE
:101A3000360281E08093380280912A02811105C02C
:101A40000E94D60781E080932A02E0912402F0915F
:101A50002502309739F482E392E090932502809337
:101A600024020AC080819181009711F0FC01FACF15
:101A700082E392E0918380832091260230912702B5
:101A80008091360290913702820F931F9093270224
:101A9000809326020895BB274A3031F4992322F41B
:101AA000BDE2909581959F4F0C94570DBB27FB018C
:101AB0005527AA27880F991FAA1FA41710F0A41B47
:101AC00083955051B9F7A05DAA3308F0A95DA193A1
:101AD000009779F7B111B1931192CB010C94700D6D
:101AE000DC01FC01672F71917723E1F7329704C085
:101AF0007C916D9370836291AE17BF07C8F3089510
:101B00002F923F924F925F926F927F928F929F920D
:101B1000AF92BF92CF92DF92EF92FF920F931F93FB
:101B2000CF93DF93CDB7DEB7CA1BDB0B0FB6F894AC
:101B3000DEBF0FBECDBF09942A88398848885F84EC
:101B40006E847D848C849B84AA84B984C884DF805D
:101B5000EE80FD800C811B81AA81B981CE0FD11D41
:101B60000FB6F894DEBF0FBECDBFED01089597FB11
:101B7000072E16F4009407D077FD09D00E94D10DEE
:101B800007FC05D03EF4909581959F4F0895709580
:101B900061957F4F0895EE0FFF1F0590F491E02DA2
:101BA0000994AA1BBB1B51E107C0AA1FBB1FA617A4
:101BB000B70710F0A61BB70B881F991F5A95A9F7F6
:101BC00080959095BC01CD0108950F931F93CF93FD
:101BD000DF938230910510F482E090E0E0914202C0
:101BE000F091430220E030E0A0E0B0E0309719F13E
:101BF000408151810281138148175907C8F0841729
:101C0000950769F4109731F012960C93129713967A
:101C10001C9327C0009342021093430222C0211557
:101C2000310519F04217530718F49A01BD01EF016D
:101C3000DF01F801DBCF21153105F9F0281B390B45
:101C40002430310580F48A819B816115710521F072
:101C5000FB019383828304C09093430280934202EA
:101C6000FE01329644C0FE01E20FF31F819391936F
:101C700022503109398328833AC0209140023091A3
:101C80004102232B41F4209115013091160130932C
:101C9000410220934002209113013091140121153B
:101CA000310541F42DB73EB740911701509118010D
:101CB000241B350BE0914002F0914102E217F3073B
:101CC000A0F42E1B3F0B2817390778F0AC014E5FAC
:101CD0005F4F2417350748F04E0F5F1F50934102A6
:101CE000409340028193919302C0E0E0F0E0CF0185
:101CF000DF91CF911F910F910895CF93DF930097BC
:101D000009F481C0FC01329713821282A091420231
:101D1000B0914302109781F420813181820F931F8B
:101D200020914002309141022817390751F5F09374
:101D30004102E093400267C0ED0120E030E0CE17A1
:101D4000DF0740F44A815B819E0141155105F1F0A6
:101D5000EA01F5CFD383C28340815181840F951F5F
:101D6000C817D90759F488819981840F951F029665
:101D7000918380838A819B8193838283211531059E
:101D800029F4F0934302E09342023DC0E901FB8352
:101D9000EA8349915991C40FD51FEC17FD0761F4EF
:101DA00080819181840F951F0296E9019983888330
:101DB000828193819B838A83E0E0F0E012968D918B
:101DC0009C911397009719F0FD01DC01F7CF8D91DD
:101DD0009C9111979D012E5F3F4F820F931F209181
:101DE0004002309141022817390769F4309729F4ED
:101DF000109243021092420202C013821282B093E8
:101E00004102A0934002DF91CF910895A0E0B0E09D
:101E1000ECE0FFE00C94840DEC01009721F4CB0181
:101E20000E94E50DB4C0FC01E60FF71F9C01225093
:101E30003109E217F30708F4A8C0D9010D911C91EC
:101E4000119706171707B0F00530110508F49BC06D
:101E5000C80104978617970708F495C00250110926
:101E6000061B170B019311936D937C93CF010E9476
:101E70007D0E89C05B01A01AB10A4C01800E911E33
:101E8000A0914202B0914302612C712CE12CF12C03
:101E9000109709F446C08D919C911197A815B9052A
:101EA000B1F56C0142E0C40ED11CCA14DB0478F118
:101EB0004C018A189B08640142E0C40ED11C1296A2
:101EC000BC9012971396AC91B5E0CB16D10440F0BC
:101ED000B282A38391828082D9016D937C9309C0E1
:101EE0000E5F1F4F800F911FF90191838083EB2DAF
:101EF000FA2FE114F10431F0D7011396FC93EE931D
:101F0000129741C0F0934302E09342023CC068162E
:101F1000790608F43C017D0112960D90BC91A02D2C
:101F2000B7CF809140029091410288169906E1F462
:101F300066167706C8F480911301909114010097FA
:101F400041F48DB79EB74091170150911801841B41
:101F5000950BE817F907C8F4F0934102E0934002AB
:101F6000F901718360830FC0CB010E94E50D7C01F4
:101F7000009759F0A801BE010E94D10FCE010E9426
:101F80007D0EC70104C0CE0102C080E090E0CDB755
:101F9000DEB7EEE00C94A00D81E090E0F8940C9494
:101FA000E10FFB01DC0102C001900D924150504055
:101FB000D8F70895FB01DC0101900D920020E1F7B4
:061FC0000895F894FFCF24
:101FC600FFFFFFFF00E100000000000000C180816C
:101FD600000000000044028000000000004502C826
:101FE6000288026C02000000000102DA04220217D5
:101FF6000227023D03190353494E474C4520434CE3
:1020060049434B454400524947485420434C4943B1
:102016004B45440052454C45415345440056657274
:10202600746963616C203A00207C20486F72697A7B
:102036006F6E74616C203A00207C20436C69636B80
:10204600203A00203D3E2000207C20486F6C6469C9
:0A2056006E67203A20000D0A00001A
:2070000055C000006EC000006CC000006AC0000068C0000066C0000064C0000062C0000043
:2070200060C000005EC00000F2C400005AC0000058C0000056C0000054C0000052C00000EE
:2070400050C0000078C000004CC000004AC0000048C0000046C0000044C0000042C00000BE
:2070600040C000003EC000003CC000003AC0000038C0000036C0000034C0000032C0000048
:2070800030C000002EC000002CC000002AC0000028C0000026C0000024C0000022C00000A8
:2070A00020C000001EC000001CC0000011241FBECFEFDAE0DEBFCDBF11E0A0E0B1E0E2E3BC
:2070C000FFE702C005900D92A83AB107D9F711E0A8EAB1E001C01D92AE3BB107E1F78FD30B
:2070E00026C78ECFF89410926F0010928100109285001092840081E085BF15BE47985D9AEB
:20710000289A0C94000008952091B2013091B3012F5F3F4F3093B3012093B201932F37FFA6
:2071200003C08EEF831B982F990F921710F447980895479A08951F920F920FB60F9211246E
:207140002F938F939F93EF93FF9310928500109284008091A8019091A901009741F00197D3
:207160009093A9018093A801892B09F45D9A8091AA019091AB01009741F001979093AB0126
:207180008093AA01892B09F4289AE0E0F0E0859194918F5F9F4F49F08091AC019091AD0151
:2071A00001969093AD018093AC01FF91EF919F918F912F910F900FBE0F901F90189584E0BC
:2071C0008093E9000DC08091E8008B778093E80003C08EB3882351F08091E80082FFF9CFBE
:2071E0008091E80085FFEFCF8091F1000895982F83E08093E9008091E80085FD0DC0809136
:20720000E8008E778093E80003C08EB3882369F08091E80080FFF9CF9093F1005D9884E6CB
:2072200090E09093A9018093A80108954F925F926F927F928F929F92AF92BF92CF92DF921E
:20724000EF92FF920F931F93CF93DF9384E08093E9008091E80082FF57C2289884E690E067
:207260009093AB018093AA01AADF182F853481F48CE49DE19093AD018093AC0107B600FC4B
:20728000FDCFF999FECF81E180935700E89503C0843519F494DF8DE00DC28C34E1F38035F9
:2072A000D1F3843721F484E4A2DF80E003C2813611F489E5FFC18134B1F481DF182F7FDFE3
:2072C00090E0880F991FAA2797FDA095BA2F312F330F20E0442737FD4095542F822B932B68
:2072E000A42BB52BB8C1803711F483E5E3C1833549F4C0E0D1E089917ADF21E0C730D20714
:20730000D1F7D9C1863521F481E371DF80E3D2C1833731F487E86BDF85E969DF8EE1CAC149
:207320008536B9F4E0E0F0E093E085E090935700E89507B600FCFDCF80935700E89507B65D
:2073400000FCFDCFE058FF4FA0E7E030FA0771F7A2CF823739F4E1E0F0E089E08093570024
:207360008491A8C1863439F4E0E0F0E089E08093570084919FC18E3439F4E3E0F0E089E0E5
:2073800080935700849196C1813539F4E2E0F0E089E08093570084918DC1823631F489E521
:2073A00026DF80E024DF80E885C1823419F0873609F0E5C01092AD011092AC0100DF082FE8
:2073C000FEDEF82EFCDE682E8554823008F071C1902F80E0CF2DD0E0C82BD92B10926F00B3
:2073E000173609F04BC081E180935700E895DD24CC24C3943FC0E090AE01F090AF010091CC
:20740000B0011091B101B6E46B16D9F4ED2DF0E0EE29FF29E4918E2FEADEDD2081F082E08D
:2074200090E0A0E0B0E0E80EF91E0A1F1B1FE092AE01F092AF010093B0011093B101DC2470
:2074400018C0D801C701B695A7959795879559D5CEDE82E090E0A0E0B0E0E80EF91E0A1FF2
:207460001B1FE092AE01F092AF010093B0011093B1012197209709F0BECF7DC08090AE01F5
:207480009090AF01A090B001B090B10196E4691609F05DC083E0F40180935700E89507B63E
:2074A00000FCFDCF54C0F6E46F1661F5772031F1E090AE01F090AF010091B0011091B1019E
:2074C0007EDED82ECC24852D90E08C299D29F7010C0140925700E895112482E090E0A0E08B
:2074E000B0E0E80EF91E0A1F1B1FE092AE01F092AF010093B0011093B10102C060DE582E1A
:20750000742423C0E090AE01F090AF010091B0011091B10116950795F794E79450DE682FFA
:20752000C701F7D48091AE019091AF01A091B001B091B1010296A11DB11D8093AE01909349
:20754000AF01A093B001B093B101219704C05524772444244394209709F0A5CF96E46916B6
:2075600041F485E0F40180935700E89507B600FCFDCF8DE03CDE82E080936F009CC0833492
:2075800071F40091AE011091AF0119DE90E021E0F8010C0120935700E89511247CCE8336C8
:2075A00019F5E090AE01F090AF010091B0011091B10105DEF701E16090E021E00C0120938C
:2075C0005700E895112482E090E0A0E0B0E0E80EF91E0A1F1B1FE092AE01F092AF0100936A
:2075E000B0011093B10157CE8D3661F4E091AE01F091AF0185E080935700E89507B600FCF2
:20760000FDCF49CE823551F4E091AE01F091AF0105911491812FEBDD802F4CC0843421F5FE
:20762000E090AE01F090AF010091B0011091B10116950795F794E794C2DD682FC70169D4DE
:207640008091AE019091AF01A091B001B091B1010296A11DB11D8093AE019093AF01A093D8
:20766000B001B093B10117CE843609F5E090AE01F090AF010091B0011091B101D801C70142
:20768000B695A795979587953CD4B1DD82E090E0A0E0B0E0E80EF91E0A1F1B1FE092AE010A
:2076A000F092AF010093B0011093B10104C08B3111F08FE39CDD83E08093E9009091E8002B
:2076C0008091E8008E778093E80095FF04C010C08EB38823C9F08091E80080FFF9CF809193
:2076E000E8008E778093E80003C08EB3882361F08091E80080FFF9CF84E08093E9008091F1
:20770000E8008B778093E800DF91CF911F910F91FF90EF90DF90CF90BF90AF909F908F90AC
:207720007F906F905F904F9008959091B601892F8F77813249F58091B7018032A1F081328A
:2077400019F5913A09F58091E800877F8093E8008DE091E067E070E00BD28091E8008B770B
:207760008093E8000895913279F48091E800877F8093E8008DE091E067E070E05DD2809192
:20778000E8008E778093E800089582E061EC42E0B5D083E061E842E1B1D084E060E842E1EF
:2077A000ADC084B7877F84BF88E10FB6F89480936000109260000FBE20E880E090E00FB63F
:2077C000F89420936100809361000FBE81E085BF92E095BF3F9A209A559AE1E6F0E02083A1
:2077E000108247985D9A289A109289008AEF8093880090936F0083E080938100F0C0409116
:20780000000850910108109201081092000894B714BE88E10FB6F8948093600010926000D5
:207820000FBE292F30E0F901E270F07091FD18C090FF05C0859194918F5F9F4F81F423FFFF
:207840000FC08091090190910A014817590741F0E0E0F0E0859194918F5F9F4F09F042DC64
:20786000A0DF78941092AD011092AC010CC0DEDC36D38091AC019091AD0181549F4110F00D
:207880001092140141DC80911401882381F78091E00081608093E00025DC80E090E0089598
:2078A000FA01923049F0933061F09130F9F485E191E022E130E01EC087E291E02EE330E04D
:2078C00019C0882329F485E691E024E030E012C0813029F489E691E022E230E00BC0823006
:2078E00029F48DE891E028E130E004C080E090E020E030E091838083C90108958093E9004E
:207900008091EB0081608093EB001092ED006093EC004093ED008091EE00881F8827881F62
:2079200008958091B60188238CF403C08EB38823B1F08091E80082FFF9CF8091E8008B772A
:207940008093E80008958EB3882349F08091E80080FFF9CF8091E8008E778093E800089594
:20796000EF92FF920F931F9345D04CD008ED10E0F80180818F77808380818068808380819B
:207980008F7D808319BC1EBA1092B40180EEE82EF12CF70180818B7F8083F8018081816052
:2079A000808380E060E042E0A9DFE1EEF0E080818E7F8083E2EEF0E0808181608083808144
:2079C00088608083F70180818E7F8083F8018081806180831F910F91FF90EF900895E7ED06
:2079E000F0E08081816080838AE482BF81E08093B501B6CFE8EDF0E080818E7F808310921C
:207A0000E20008951092DA001092E10008951F920F920FB60F9211242F933F934F935F93F6
:207A20006F937F938F939F93AF93BF93EF93FF938091DA0080FF1BC08091D80080FF17C0B2
:207A40008091DA008E7F8093DA008091D90080FF0BC080E189BD82E189BD09B400FEFDCF36
:207A600081E08EBB3BD203C019BC1EBA37D28091E10080FF17C08091E20080FF13C0809138
:207A8000E2008E7F8093E2008091E20080618093E2008091D80080628093D80019BC85E049
:207AA0008EBB1CD28091E10084FF2CC08091E20084FF28C080E189BD82E189BD09B400FEC5
:207AC000FDCF8091D8008F7D8093D8008091E1008F7E8093E1008091E2008F7E8093E20012
:207AE0008091E20081608093E2008091B401882331F48091E30087FD02C081E001C084E067
:207B00008EBBECD18091E10083FF21C08091E20083FF1DC08091E100877F8093E10082E06A
:207B20008EBB1092B4018091E1008E7F8093E1008091E2008E7F8093E2008091E2008061E9
:207B40008093E20080E060E042E0D8DEC7D1FF91EF91BF91AF919F918F917F916F915F9130
:207B60004F913F912F910F900FBE0F901F9018959C014091BC015091BD014617570718F49D
:207B8000F90190E044C06115710511F0AB01F8CF8091E8008E778093E80040E050E0F0CF0F
:207BA0008EB3882309F444C0853009F443C08091E80083FF02C081E008958091E80082FD70
:207BC00031C08091E80080FF22C08091F3009091F200782F60E0292F30E0262B372B07C07A
:207BE00081918093F100415050402F5F3F4F4115510519F02830310598F390E02830310566
:207C000009F491E08091E8008E778093E8004115510531F6992321F605C08EB3882341F075
:207C2000853041F08091E80082FFF7CF80E0089582E0089583E008959C016115710529F47C
:207C40008091E8008B778093E800F90126C08EB3882391F1853091F18091E80083FF02C06C
:207C600081E008958091E80082FFF1CF06C08091F10081936150704059F02091F300809191
:207C8000F200322F20E090E0822B932B892B79F78091E8008B778093E80061157105B9F601
:207CA00005C08EB3882341F0853041F08091E80080FFF7CF80E0089582E0089583E00895C2
:207CC0000F931F93DF93CF9300D0CDB7DEB7E6EBF1E08091F100819381E0EE3BF807C9F792
:207CE00024DD8091E80083FFE4C08091B6019091B701953009F46DC0963040F4913081F1A7
:207D0000913070F0933009F0D4C02AC0983009F4A3C0993009F4B2C0963009F0CAC07CC023
:207D2000803809F4C6C0823809F0C3C08091BA0187708093E9008091EB001092E9002091DB
:207D4000E800277F2093E80090E025E0969587952A95E1F781708093F1001092F10087C0D8
:207D6000882319F0823009F0A4C08F71823009F0A0C08091B801882331F52091BA01277097
:207D800009F497C02093E9008091EB0080FF1BC0933021F48091EB00806213C08091EB0018
:207DA00080618093EB0081E090E002C0880F991F2A95E2F78093EA001092EA008091EB00E5
:207DC00088608093EB001092E9008091E800877F51C0882309F06DC01091B8011F770FB79B
:207DE000F8948091E800877F8093E8009ADD8091E80080FFFCCF8091E3008078812B809398
:207E0000E30080688093E300112311F482E001C083E08EBB0FBF4DC08058823008F049C033
:207E20008091B8019091B9016091BA01AE014F5F5F4F36DDBC01009709F43BC08091E8008E
:207E4000877F8093E80089819A8192DE8091E8008B778093E8002DC0803859F58091E800AA
:207E6000877F8093E8008091B4018093F1008091E8008E778093E80054DD1BC08823C9F4CA
:207E80009091B8019230A8F48091E800877F8093E8009093B40145DD8091B401882331F420
:207EA0008091E30087FD02C081E001C084E08EBB6CDC8091E80083FF0AC08091EB0080624E
:207EC0008093EB008091E800877F8093E8000F900F90CF91DF911F910F91089508951F9360
:207EE0008EB3882361F01091E9001092E9008091E80083FF01C0E4DE17701093E9001F916F
:207F00000895F999FECF92BD81BDF89A992780B50895262FF999FECF1FBA92BD81BD20BDBD
:207F20000FB6F894FA9AF99A0FBE01960895F894FFCF4341544552494E4100777700080031
:207F40000000000000080112011001020000084123360001000201000109023E00020100FF
:207F600080320904000001020201000524001001042402040524060001070582030800FF0C
:207F800009040100020A000000070504021000010705830210000104030904220341007216
:207FA000006400750069006E006F0020004C0065006F006E006100720064006F0000001836
:1A7FC00003410072006400750069006E006F0020004C004C004300000000D7
:00000001FF
